{
  "_format": "hh-sol-artifact-1",
  "contractName": "Xpresale",
  "sourceName": "contracts/Xpresale.sol",
  "abi": [
    {
      "inputs": [
        {
          "internalType": "contract XfolioToken",
          "name": "_tokenContract",
          "type": "address"
        },
        {
          "internalType": "uint256",
          "name": "_tokenPrice",
          "type": "uint256"
        }
      ],
      "stateMutability": "nonpayable",
      "type": "constructor"
    },
    {
      "anonymous": false,
      "inputs": [
        {
          "indexed": false,
          "internalType": "address",
          "name": "_buyer",
          "type": "address"
        },
        {
          "indexed": false,
          "internalType": "uint256",
          "name": "_amount",
          "type": "uint256"
        }
      ],
      "name": "Purchase",
      "type": "event"
    },
    {
      "inputs": [],
      "name": "tokenContract",
      "outputs": [
        {
          "internalType": "contract XfolioToken",
          "name": "",
          "type": "address"
        }
      ],
      "stateMutability": "view",
      "type": "function"
    },
    {
      "inputs": [],
      "name": "tokenPrice",
      "outputs": [
        {
          "internalType": "uint256",
          "name": "",
          "type": "uint256"
        }
      ],
      "stateMutability": "view",
      "type": "function"
    },
    {
      "inputs": [],
      "name": "tokensSold",
      "outputs": [
        {
          "internalType": "uint256",
          "name": "",
          "type": "uint256"
        }
      ],
      "stateMutability": "view",
      "type": "function"
    }
  ],
  "bytecode": "0x608060405234801561001057600080fd5b5060405161035a38038061035a833981810160405281019061003291906100eb565b33600360006101000a81548173ffffffffffffffffffffffffffffffffffffffff021916908373ffffffffffffffffffffffffffffffffffffffff160217905550816000806101000a81548173ffffffffffffffffffffffffffffffffffffffff021916908373ffffffffffffffffffffffffffffffffffffffff1602179055508060018190555050506101a3565b6000815190506100d081610175565b92915050565b6000815190506100e58161018c565b92915050565b600080604083850312156100fe57600080fd5b600061010c858286016100c1565b925050602061011d858286016100d6565b9150509250929050565b60006101328261014b565b9050919050565b600061014482610127565b9050919050565b600073ffffffffffffffffffffffffffffffffffffffff82169050919050565b6000819050919050565b61017e81610139565b811461018957600080fd5b50565b6101958161016b565b81146101a057600080fd5b50565b6101a8806101b26000396000f3fe608060405234801561001057600080fd5b50600436106100415760003560e01c8063518ab2a81461004657806355a373d6146100645780637ff9b59614610082575b600080fd5b61004e6100a0565b60405161005b9190610109565b60405180910390f35b61006c6100a6565b60405161007991906100ee565b60405180910390f35b61008a6100ca565b6040516100979190610109565b60405180910390f35b60025481565b60008054906101000a900473ffffffffffffffffffffffffffffffffffffffff1681565b60015481565b6100d98161014e565b82525050565b6100e881610144565b82525050565b600060208201905061010360008301846100d0565b92915050565b600060208201905061011e60008301846100df565b92915050565b600073ffffffffffffffffffffffffffffffffffffffff82169050919050565b6000819050919050565b600061015982610160565b9050919050565b600061016b82610124565b905091905056fea2646970667358221220fc8f3c867b79218966c731620a82bb144b704183200244a21284b1d3ca1963a064736f6c63430008040033",
  "linkReferences": {},
  "deployedLinkReferences": {}
}