{
  "_format": "hh-sol-artifact-1",
  "contractName": "Xpresale",
  "sourceName": "contracts/Xpresale.sol",
  "abi": [
    {
      "inputs": [
        {
          "internalType": "contract XfolioToken",
          "name": "_tokenContract",
          "type": "address"
        },
        {
          "internalType": "uint256",
          "name": "_rate",
          "type": "uint256"
        }
      ],
      "stateMutability": "nonpayable",
      "type": "constructor"
    },
    {
      "anonymous": false,
      "inputs": [
        {
          "indexed": false,
          "internalType": "address",
          "name": "_buyer",
          "type": "address"
        },
        {
          "indexed": false,
          "internalType": "uint256",
          "name": "_amount",
          "type": "uint256"
        }
      ],
      "name": "Purchase",
      "type": "event"
    },
    {
      "inputs": [
        {
          "internalType": "address",
          "name": "_beneficiary",
          "type": "address"
        }
      ],
      "name": "buyTokens",
      "outputs": [],
      "stateMutability": "payable",
      "type": "function"
    },
    {
      "inputs": [],
      "name": "rate",
      "outputs": [
        {
          "internalType": "uint256",
          "name": "",
          "type": "uint256"
        }
      ],
      "stateMutability": "view",
      "type": "function"
    },
    {
      "inputs": [],
      "name": "tokenContract",
      "outputs": [
        {
          "internalType": "contract XfolioToken",
          "name": "",
          "type": "address"
        }
      ],
      "stateMutability": "view",
      "type": "function"
    },
    {
      "inputs": [],
      "name": "weiRaised",
      "outputs": [
        {
          "internalType": "uint256",
          "name": "",
          "type": "uint256"
        }
      ],
      "stateMutability": "view",
      "type": "function"
    },
    {
      "stateMutability": "payable",
      "type": "receive"
    }
  ],
  "bytecode": "0x608060405234801561001057600080fd5b5060405161079d38038061079d833981810160405281019061003291906100f8565b6000811161003f57600080fd5b33600360006101000a81548173ffffffffffffffffffffffffffffffffffffffff021916908373ffffffffffffffffffffffffffffffffffffffff160217905550816000806101000a81548173ffffffffffffffffffffffffffffffffffffffff021916908373ffffffffffffffffffffffffffffffffffffffff1602179055508060018190555050506101b0565b6000815190506100dd81610182565b92915050565b6000815190506100f281610199565b92915050565b6000806040838503121561010b57600080fd5b6000610119858286016100ce565b925050602061012a858286016100e3565b9150509250929050565b600061013f82610158565b9050919050565b600061015182610134565b9050919050565b600073ffffffffffffffffffffffffffffffffffffffff82169050919050565b6000819050919050565b61018b81610146565b811461019657600080fd5b50565b6101a281610178565b81146101ad57600080fd5b50565b6105de806101bf6000396000f3fe6080604052600436106100435760003560e01c80632c4e722e146100585780634042b66f1461008357806355a373d6146100ae578063ec8ac4d8146100d957610053565b3661005357610051336100f5565b005b600080fd5b34801561006457600080fd5b5061006d610297565b60405161007a91906103b4565b60405180910390f35b34801561008f57600080fd5b5061009861029d565b6040516100a591906103b4565b60405180910390f35b3480156100ba57600080fd5b506100c36102a3565b6040516100d09190610399565b60405180910390f35b6100f360048036038101906100ee91906102f1565b6100f5565b005b600073ffffffffffffffffffffffffffffffffffffffff168173ffffffffffffffffffffffffffffffffffffffff16141561012f57600080fd5b600034141561013d57600080fd5b6000670de0b6b3a7640000346101539190610425565b90506000600154826101659190610456565b90503460025461017591906103cf565b60028190555060008054906101000a900473ffffffffffffffffffffffffffffffffffffffff1673ffffffffffffffffffffffffffffffffffffffff1663a9059cbb84836040518363ffffffff1660e01b81526004016101d6929190610370565b602060405180830381600087803b1580156101f057600080fd5b505af1158015610204573d6000803e3d6000fd5b505050506040513d601f19601f82011682018060405250810190610228919061031a565b50600360009054906101000a900473ffffffffffffffffffffffffffffffffffffffff1673ffffffffffffffffffffffffffffffffffffffff166108fc349081150290604051600060405180830381858888f19350505050158015610291573d6000803e3d6000fd5b50505050565b60015481565b60025481565b60008054906101000a900473ffffffffffffffffffffffffffffffffffffffff1681565b6000813590506102d68161057a565b92915050565b6000815190506102eb81610591565b92915050565b60006020828403121561030357600080fd5b6000610311848285016102c7565b91505092915050565b60006020828403121561032c57600080fd5b600061033a848285016102dc565b91505092915050565b61034c816104b0565b82525050565b61035b816104f8565b82525050565b61036a816104ee565b82525050565b60006040820190506103856000830185610343565b6103926020830184610361565b9392505050565b60006020820190506103ae6000830184610352565b92915050565b60006020820190506103c96000830184610361565b92915050565b60006103da826104ee565b91506103e5836104ee565b9250827fffffffffffffffffffffffffffffffffffffffffffffffffffffffffffffffff0382111561041a5761041961051c565b5b828201905092915050565b6000610430826104ee565b915061043b836104ee565b92508261044b5761044a61054b565b5b828204905092915050565b6000610461826104ee565b915061046c836104ee565b9250817fffffffffffffffffffffffffffffffffffffffffffffffffffffffffffffffff04831182151516156104a5576104a461051c565b5b828202905092915050565b60006104bb826104ce565b9050919050565b60008115159050919050565b600073ffffffffffffffffffffffffffffffffffffffff82169050919050565b6000819050919050565b60006105038261050a565b9050919050565b6000610515826104ce565b9050919050565b7f4e487b7100000000000000000000000000000000000000000000000000000000600052601160045260246000fd5b7f4e487b7100000000000000000000000000000000000000000000000000000000600052601260045260246000fd5b610583816104b0565b811461058e57600080fd5b50565b61059a816104c2565b81146105a557600080fd5b5056fea2646970667358221220e58e942181f3c2b997d8ed407096f643971b7d50757d1430bc4eec4a43b34beb64736f6c63430008040033",
  "linkReferences": {},
  "deployedLinkReferences": {}
}