{
  "_format": "hh-sol-artifact-1",
  "contractName": "XfolioToken",
  "sourceName": "contracts/XfolioToken.sol",
  "abi": [
    {
      "inputs": [
        {
          "internalType": "uint256",
          "name": "initialSupply",
          "type": "uint256"
        }
      ],
      "stateMutability": "nonpayable",
      "type": "constructor"
    },
    {
      "anonymous": false,
      "inputs": [
        {
          "indexed": true,
          "internalType": "address",
          "name": "owner",
          "type": "address"
        },
        {
          "indexed": true,
          "internalType": "address",
          "name": "spender",
          "type": "address"
        },
        {
          "indexed": false,
          "internalType": "uint256",
          "name": "value",
          "type": "uint256"
        }
      ],
      "name": "Approval",
      "type": "event"
    },
    {
      "anonymous": false,
      "inputs": [
        {
          "indexed": true,
          "internalType": "address",
          "name": "delegator",
          "type": "address"
        },
        {
          "indexed": true,
          "internalType": "address",
          "name": "fromDelegate",
          "type": "address"
        },
        {
          "indexed": true,
          "internalType": "address",
          "name": "toDelegate",
          "type": "address"
        }
      ],
      "name": "DelegateChanged",
      "type": "event"
    },
    {
      "anonymous": false,
      "inputs": [
        {
          "indexed": true,
          "internalType": "address",
          "name": "delegate",
          "type": "address"
        },
        {
          "indexed": false,
          "internalType": "uint256",
          "name": "previousBalance",
          "type": "uint256"
        },
        {
          "indexed": false,
          "internalType": "uint256",
          "name": "newBalance",
          "type": "uint256"
        }
      ],
      "name": "DelegateVotesChanged",
      "type": "event"
    },
    {
      "anonymous": false,
      "inputs": [
        {
          "indexed": true,
          "internalType": "address",
          "name": "from",
          "type": "address"
        },
        {
          "indexed": true,
          "internalType": "address",
          "name": "to",
          "type": "address"
        },
        {
          "indexed": false,
          "internalType": "uint256",
          "name": "value",
          "type": "uint256"
        }
      ],
      "name": "Transfer",
      "type": "event"
    },
    {
      "inputs": [],
      "name": "DOMAIN_SEPARATOR",
      "outputs": [
        {
          "internalType": "bytes32",
          "name": "",
          "type": "bytes32"
        }
      ],
      "stateMutability": "view",
      "type": "function"
    },
    {
      "inputs": [
        {
          "internalType": "address",
          "name": "owner",
          "type": "address"
        },
        {
          "internalType": "address",
          "name": "spender",
          "type": "address"
        }
      ],
      "name": "allowance",
      "outputs": [
        {
          "internalType": "uint256",
          "name": "",
          "type": "uint256"
        }
      ],
      "stateMutability": "view",
      "type": "function"
    },
    {
      "inputs": [
        {
          "internalType": "address",
          "name": "spender",
          "type": "address"
        },
        {
          "internalType": "uint256",
          "name": "amount",
          "type": "uint256"
        }
      ],
      "name": "approve",
      "outputs": [
        {
          "internalType": "bool",
          "name": "",
          "type": "bool"
        }
      ],
      "stateMutability": "nonpayable",
      "type": "function"
    },
    {
      "inputs": [
        {
          "internalType": "address",
          "name": "account",
          "type": "address"
        }
      ],
      "name": "balanceOf",
      "outputs": [
        {
          "internalType": "uint256",
          "name": "",
          "type": "uint256"
        }
      ],
      "stateMutability": "view",
      "type": "function"
    },
    {
      "inputs": [
        {
          "internalType": "uint256",
          "name": "amount",
          "type": "uint256"
        }
      ],
      "name": "burn",
      "outputs": [],
      "stateMutability": "nonpayable",
      "type": "function"
    },
    {
      "inputs": [
        {
          "internalType": "address",
          "name": "account",
          "type": "address"
        },
        {
          "internalType": "uint256",
          "name": "amount",
          "type": "uint256"
        }
      ],
      "name": "burnFrom",
      "outputs": [],
      "stateMutability": "nonpayable",
      "type": "function"
    },
    {
      "inputs": [
        {
          "internalType": "address",
          "name": "account",
          "type": "address"
        },
        {
          "internalType": "uint32",
          "name": "pos",
          "type": "uint32"
        }
      ],
      "name": "checkpoints",
      "outputs": [
        {
          "components": [
            {
              "internalType": "uint32",
              "name": "fromBlock",
              "type": "uint32"
            },
            {
              "internalType": "uint224",
              "name": "votes",
              "type": "uint224"
            }
          ],
          "internalType": "struct ERC20Votes.Checkpoint",
          "name": "",
          "type": "tuple"
        }
      ],
      "stateMutability": "view",
      "type": "function"
    },
    {
      "inputs": [],
      "name": "decimals",
      "outputs": [
        {
          "internalType": "uint8",
          "name": "",
          "type": "uint8"
        }
      ],
      "stateMutability": "view",
      "type": "function"
    },
    {
      "inputs": [
        {
          "internalType": "address",
          "name": "spender",
          "type": "address"
        },
        {
          "internalType": "uint256",
          "name": "subtractedValue",
          "type": "uint256"
        }
      ],
      "name": "decreaseAllowance",
      "outputs": [
        {
          "internalType": "bool",
          "name": "",
          "type": "bool"
        }
      ],
      "stateMutability": "nonpayable",
      "type": "function"
    },
    {
      "inputs": [
        {
          "internalType": "address",
          "name": "delegatee",
          "type": "address"
        }
      ],
      "name": "delegate",
      "outputs": [],
      "stateMutability": "nonpayable",
      "type": "function"
    },
    {
      "inputs": [
        {
          "internalType": "address",
          "name": "delegatee",
          "type": "address"
        },
        {
          "internalType": "uint256",
          "name": "nonce",
          "type": "uint256"
        },
        {
          "internalType": "uint256",
          "name": "expiry",
          "type": "uint256"
        },
        {
          "internalType": "uint8",
          "name": "v",
          "type": "uint8"
        },
        {
          "internalType": "bytes32",
          "name": "r",
          "type": "bytes32"
        },
        {
          "internalType": "bytes32",
          "name": "s",
          "type": "bytes32"
        }
      ],
      "name": "delegateBySig",
      "outputs": [],
      "stateMutability": "nonpayable",
      "type": "function"
    },
    {
      "inputs": [
        {
          "internalType": "address",
          "name": "account",
          "type": "address"
        }
      ],
      "name": "delegates",
      "outputs": [
        {
          "internalType": "address",
          "name": "",
          "type": "address"
        }
      ],
      "stateMutability": "view",
      "type": "function"
    },
    {
      "inputs": [
        {
          "internalType": "uint256",
          "name": "blockNumber",
          "type": "uint256"
        }
      ],
      "name": "getPastTotalSupply",
      "outputs": [
        {
          "internalType": "uint256",
          "name": "",
          "type": "uint256"
        }
      ],
      "stateMutability": "view",
      "type": "function"
    },
    {
      "inputs": [
        {
          "internalType": "address",
          "name": "account",
          "type": "address"
        },
        {
          "internalType": "uint256",
          "name": "blockNumber",
          "type": "uint256"
        }
      ],
      "name": "getPastVotes",
      "outputs": [
        {
          "internalType": "uint256",
          "name": "",
          "type": "uint256"
        }
      ],
      "stateMutability": "view",
      "type": "function"
    },
    {
      "inputs": [
        {
          "internalType": "address",
          "name": "account",
          "type": "address"
        }
      ],
      "name": "getVotes",
      "outputs": [
        {
          "internalType": "uint256",
          "name": "",
          "type": "uint256"
        }
      ],
      "stateMutability": "view",
      "type": "function"
    },
    {
      "inputs": [
        {
          "internalType": "address",
          "name": "spender",
          "type": "address"
        },
        {
          "internalType": "uint256",
          "name": "addedValue",
          "type": "uint256"
        }
      ],
      "name": "increaseAllowance",
      "outputs": [
        {
          "internalType": "bool",
          "name": "",
          "type": "bool"
        }
      ],
      "stateMutability": "nonpayable",
      "type": "function"
    },
    {
      "inputs": [],
      "name": "name",
      "outputs": [
        {
          "internalType": "string",
          "name": "",
          "type": "string"
        }
      ],
      "stateMutability": "view",
      "type": "function"
    },
    {
      "inputs": [
        {
          "internalType": "address",
          "name": "owner",
          "type": "address"
        }
      ],
      "name": "nonces",
      "outputs": [
        {
          "internalType": "uint256",
          "name": "",
          "type": "uint256"
        }
      ],
      "stateMutability": "view",
      "type": "function"
    },
    {
      "inputs": [
        {
          "internalType": "address",
          "name": "account",
          "type": "address"
        }
      ],
      "name": "numCheckpoints",
      "outputs": [
        {
          "internalType": "uint32",
          "name": "",
          "type": "uint32"
        }
      ],
      "stateMutability": "view",
      "type": "function"
    },
    {
      "inputs": [
        {
          "internalType": "address",
          "name": "owner",
          "type": "address"
        },
        {
          "internalType": "address",
          "name": "spender",
          "type": "address"
        },
        {
          "internalType": "uint256",
          "name": "value",
          "type": "uint256"
        },
        {
          "internalType": "uint256",
          "name": "deadline",
          "type": "uint256"
        },
        {
          "internalType": "uint8",
          "name": "v",
          "type": "uint8"
        },
        {
          "internalType": "bytes32",
          "name": "r",
          "type": "bytes32"
        },
        {
          "internalType": "bytes32",
          "name": "s",
          "type": "bytes32"
        }
      ],
      "name": "permit",
      "outputs": [],
      "stateMutability": "nonpayable",
      "type": "function"
    },
    {
      "inputs": [],
      "name": "symbol",
      "outputs": [
        {
          "internalType": "string",
          "name": "",
          "type": "string"
        }
      ],
      "stateMutability": "view",
      "type": "function"
    },
    {
      "inputs": [],
      "name": "totalSupply",
      "outputs": [
        {
          "internalType": "uint256",
          "name": "",
          "type": "uint256"
        }
      ],
      "stateMutability": "view",
      "type": "function"
    },
    {
      "inputs": [
        {
          "internalType": "address",
          "name": "recipient",
          "type": "address"
        },
        {
          "internalType": "uint256",
          "name": "amount",
          "type": "uint256"
        }
      ],
      "name": "transfer",
      "outputs": [
        {
          "internalType": "bool",
          "name": "",
          "type": "bool"
        }
      ],
      "stateMutability": "nonpayable",
      "type": "function"
    },
    {
      "inputs": [
        {
          "internalType": "address",
          "name": "sender",
          "type": "address"
        },
        {
          "internalType": "address",
          "name": "recipient",
          "type": "address"
        },
        {
          "internalType": "uint256",
          "name": "amount",
          "type": "uint256"
        }
      ],
      "name": "transferFrom",
      "outputs": [
        {
          "internalType": "bool",
          "name": "",
          "type": "bool"
        }
      ],
      "stateMutability": "nonpayable",
      "type": "function"
    }
  ],
  "bytecode": "0x6101406040527f6e71edae12b1b97f4d1f60370fef10105fa2faae0126114a169c64845d6126c9610120908152503480156200003a57600080fd5b5060405162004d8538038062004d85833981810160405281019062000060919062000c9b565b6040518060400160405280600c81526020017f58666f6c696f20546f6b656e0000000000000000000000000000000000000000815250806040518060400160405280600181526020017f31000000000000000000000000000000000000000000000000000000000000008152506040518060400160405280600c81526020017f58666f6c696f20546f6b656e00000000000000000000000000000000000000008152506040518060400160405280600381526020017f58464c000000000000000000000000000000000000000000000000000000000081525081600390805190602001906200015192919062000bd4565b5080600490805190602001906200016a92919062000bd4565b50505060008280519060200120905060008280519060200120905060007f8b73c3c69bb8fe3d512ecc4cf759cc79239f7b179b0ffacaa9a75d522b39400f90508260c081815250508160e081815250504660a08181525050620001d58184846200020460201b60201c565b60808181525050806101008181525050505050505050620001fd33826200024060201b60201c565b506200117a565b600083838346306040516020016200022195949392919062000d96565b6040516020818303038152906040528051906020012090509392505050565b6200025782826200025b60201b6200114c1760201c565b5050565b6200027282826200031960201b620011d91760201c565b620002826200049260201b60201c565b7bffffffffffffffffffffffffffffffffffffffffffffffffffffffff16620002b0620004b660201b60201c565b1115620002f4576040517f08c379a0000000000000000000000000000000000000000000000000000000008152600401620002eb9062000df3565b60405180910390fd5b620003136008620004c060201b620013391783620004d860201b60201c565b50505050565b600073ffffffffffffffffffffffffffffffffffffffff168273ffffffffffffffffffffffffffffffffffffffff1614156200038c576040517f08c379a0000000000000000000000000000000000000000000000000000000008152600401620003839062000e59565b60405180910390fd5b620003a060008383620007f560201b60201c565b8060026000828254620003b4919062000ed6565b92505081905550806000808473ffffffffffffffffffffffffffffffffffffffff1673ffffffffffffffffffffffffffffffffffffffff16815260200190815260200160002060008282546200040b919062000ed6565b925050819055508173ffffffffffffffffffffffffffffffffffffffff16600073ffffffffffffffffffffffffffffffffffffffff167fddf252ad1be2c89b69c2b068fc378daa952ba7f163c4a11628f55a4df523b3ef8360405162000472919062000e7b565b60405180910390a36200048e60008383620007fa60201b60201c565b5050565b60007bffffffffffffffffffffffffffffffffffffffffffffffffffffffff905090565b6000600254905090565b60008183620004d0919062000ed6565b905092915050565b60008060008580549050905060008114620005715785600182620004fd919062000f33565b8154811062000535577f4e487b7100000000000000000000000000000000000000000000000000000000600052603260045260246000fd5b9060005260206000200160000160049054906101000a90047bffffffffffffffffffffffffffffffffffffffffffffffffffffffff1662000574565b60005b7bffffffffffffffffffffffffffffffffffffffffffffffffffffffff169250620005a083858760201c565b91506000811180156200061d57504386600183620005bf919062000f33565b81548110620005f7577f4e487b7100000000000000000000000000000000000000000000000000000000600052603260045260246000fd5b9060005260206000200160000160009054906101000a900463ffffffff1663ffffffff16145b15620006e25762000639826200081760201b6200134f1760201c565b8660018362000649919062000f33565b8154811062000681577f4e487b7100000000000000000000000000000000000000000000000000000000600052603260045260246000fd5b9060005260206000200160000160046101000a8154817bffffffffffffffffffffffffffffffffffffffffffffffffffffffff02191690837bffffffffffffffffffffffffffffffffffffffffffffffffffffffff160217905550620007ec565b85604051806040016040528062000704436200088560201b620013ba1760201c565b63ffffffff16815260200162000725856200081760201b6200134f1760201c565b7bffffffffffffffffffffffffffffffffffffffffffffffffffffffff168152509080600181540180825580915050600190039060005260206000200160009091909190915060008201518160000160006101000a81548163ffffffff021916908363ffffffff16021790555060208201518160000160046101000a8154817bffffffffffffffffffffffffffffffffffffffffffffffffffffffff02191690837bffffffffffffffffffffffffffffffffffffffffffffffffffffffff16021790555050505b50935093915050565b505050565b62000812838383620008db60201b6200140d1760201c565b505050565b60007bffffffffffffffffffffffffffffffffffffffffffffffffffffffff80168211156200087d576040517f08c379a0000000000000000000000000000000000000000000000000000000008152600401620008749062000e15565b60405180910390fd5b819050919050565b600063ffffffff8016821115620008d3576040517f08c379a0000000000000000000000000000000000000000000000000000000008152600401620008ca9062000e37565b60405180910390fd5b819050919050565b620008f38383836200092b60201b620014381760201c565b6200092662000908846200093060201b60201c565b62000919846200093060201b60201c565b836200099960201b60201c565b505050565b505050565b6000600660008373ffffffffffffffffffffffffffffffffffffffff1673ffffffffffffffffffffffffffffffffffffffff16815260200190815260200160002060009054906101000a900473ffffffffffffffffffffffffffffffffffffffff169050919050565b8173ffffffffffffffffffffffffffffffffffffffff168373ffffffffffffffffffffffffffffffffffffffff1614158015620009d65750600081115b1562000bb757600073ffffffffffffffffffffffffffffffffffffffff168373ffffffffffffffffffffffffffffffffffffffff161462000ac95760008062000a70600760008773ffffffffffffffffffffffffffffffffffffffff1673ffffffffffffffffffffffffffffffffffffffff16815260200190815260200160002062000bbc60201b6200143d1785620004d860201b60201c565b915091508473ffffffffffffffffffffffffffffffffffffffff167fdec2bacdd2f05b59de34da9b523dff8be42e5e38e818c82fdb0bae774387a724838360405162000abe92919062000e98565b60405180910390a250505b600073ffffffffffffffffffffffffffffffffffffffff168273ffffffffffffffffffffffffffffffffffffffff161462000bb65760008062000b5d600760008673ffffffffffffffffffffffffffffffffffffffff1673ffffffffffffffffffffffffffffffffffffffff168152602001908152602001600020620004c060201b620013391785620004d860201b60201c565b915091508373ffffffffffffffffffffffffffffffffffffffff167fdec2bacdd2f05b59de34da9b523dff8be42e5e38e818c82fdb0bae774387a724838360405162000bab92919062000e98565b60405180910390a250505b5b505050565b6000818362000bcc919062000f33565b905092915050565b82805462000be29062000fb6565b90600052602060002090601f01602090048101928262000c06576000855562000c52565b82601f1062000c2157805160ff191683800117855562000c52565b8280016001018555821562000c52579182015b8281111562000c5157825182559160200191906001019062000c34565b5b50905062000c61919062000c65565b5090565b5b8082111562000c8057600081600090555060010162000c66565b5090565b60008151905062000c958162001160565b92915050565b60006020828403121562000cae57600080fd5b600062000cbe8482850162000c84565b91505092915050565b62000cd28162000f6e565b82525050565b62000ce38162000f82565b82525050565b600062000cf860308362000ec5565b915062000d05826200104a565b604082019050919050565b600062000d1f60278362000ec5565b915062000d2c8262001099565b604082019050919050565b600062000d4660268362000ec5565b915062000d5382620010e8565b604082019050919050565b600062000d6d601f8362000ec5565b915062000d7a8262001137565b602082019050919050565b62000d908162000fac565b82525050565b600060a08201905062000dad600083018862000cd8565b62000dbc602083018762000cd8565b62000dcb604083018662000cd8565b62000dda606083018562000d85565b62000de9608083018462000cc7565b9695505050505050565b6000602082019050818103600083015262000e0e8162000ce9565b9050919050565b6000602082019050818103600083015262000e308162000d10565b9050919050565b6000602082019050818103600083015262000e528162000d37565b9050919050565b6000602082019050818103600083015262000e748162000d5e565b9050919050565b600060208201905062000e92600083018462000d85565b92915050565b600060408201905062000eaf600083018562000d85565b62000ebe602083018462000d85565b9392505050565b600082825260208201905092915050565b600062000ee38262000fac565b915062000ef08362000fac565b9250827fffffffffffffffffffffffffffffffffffffffffffffffffffffffffffffffff0382111562000f285762000f2762000fec565b5b828201905092915050565b600062000f408262000fac565b915062000f4d8362000fac565b92508282101562000f635762000f6262000fec565b5b828203905092915050565b600062000f7b8262000f8c565b9050919050565b6000819050919050565b600073ffffffffffffffffffffffffffffffffffffffff82169050919050565b6000819050919050565b6000600282049050600182168062000fcf57607f821691505b6020821081141562000fe65762000fe56200101b565b5b50919050565b7f4e487b7100000000000000000000000000000000000000000000000000000000600052601160045260246000fd5b7f4e487b7100000000000000000000000000000000000000000000000000000000600052602260045260246000fd5b7f4552433230566f7465733a20746f74616c20737570706c79207269736b73206f60008201527f766572666c6f77696e6720766f74657300000000000000000000000000000000602082015250565b7f53616665436173743a2076616c756520646f65736e27742066697420696e203260008201527f3234206269747300000000000000000000000000000000000000000000000000602082015250565b7f53616665436173743a2076616c756520646f65736e27742066697420696e203360008201527f3220626974730000000000000000000000000000000000000000000000000000602082015250565b7f45524332303a206d696e7420746f20746865207a65726f206164647265737300600082015250565b6200116b8162000fac565b81146200117757600080fd5b50565b60805160a05160c05160e0516101005161012051613bbb620011ca6000396000610e94015260006118fe015260006119400152600061191f015260006118ab015260006118d30152613bbb6000f3fe608060405234801561001057600080fd5b50600436106101585760003560e01c806370a08231116100c3578063a457c2d71161007c578063a457c2d714610427578063a9059cbb14610457578063c3cda52014610487578063d505accf146104a3578063dd62ed3e146104bf578063f1127ed8146104ef57610158565b806370a082311461032d57806379cc67901461035d5780637ecebe00146103795780638e539e8c146103a957806395d89b41146103d95780639ab24eb0146103f757610158565b8063395093511161011557806339509351146102355780633a46b1a81461026557806342966c6814610295578063587cde1e146102b15780635c19a95c146102e15780636fcfff45146102fd57610158565b806306fdde031461015d578063095ea7b31461017b57806318160ddd146101ab57806323b872dd146101c9578063313ce567146101f95780633644e51514610217575b600080fd5b61016561051f565b6040516101729190612efb565b60405180910390f35b610195600480360381019061019091906127ef565b6105b1565b6040516101a29190612d87565b60405180910390f35b6101b36105cf565b6040516101c091906131f8565b60405180910390f35b6101e360048036038101906101de9190612702565b6105d9565b6040516101f09190612d87565b60405180910390f35b6102016106d1565b60405161020e9190613257565b60405180910390f35b61021f6106da565b60405161022c9190612da2565b60405180910390f35b61024f600480360381019061024a91906127ef565b6106e9565b60405161025c9190612d87565b60405180910390f35b61027f600480360381019061027a91906127ef565b610795565b60405161028c91906131f8565b60405180910390f35b6102af60048036038101906102aa91906128f0565b610829565b005b6102cb60048036038101906102c6919061269d565b61083d565b6040516102d89190612d6c565b60405180910390f35b6102fb60048036038101906102f6919061269d565b6108a6565b005b6103176004803603810190610312919061269d565b6108ba565b604051610324919061323c565b60405180910390f35b6103476004803603810190610342919061269d565b61090e565b60405161035491906131f8565b60405180910390f35b610377600480360381019061037291906127ef565b610956565b005b610393600480360381019061038e919061269d565b6109d1565b6040516103a091906131f8565b60405180910390f35b6103c360048036038101906103be91906128f0565b610a21565b6040516103d091906131f8565b60405180910390f35b6103e1610a77565b6040516103ee9190612efb565b60405180910390f35b610411600480360381019061040c919061269d565b610b09565b60405161041e91906131f8565b60405180910390f35b610441600480360381019061043c91906127ef565b610c40565b60405161044e9190612d87565b60405180910390f35b610471600480360381019061046c91906127ef565b610d2b565b60405161047e9190612d87565b60405180910390f35b6104a1600480360381019061049c919061282b565b610d49565b005b6104bd60048036038101906104b89190612751565b610e4d565b005b6104d960048036038101906104d491906126c6565b610f8f565b6040516104e691906131f8565b60405180910390f35b610509600480360381019061050491906128b4565b611016565b60405161051691906131dd565b60405180910390f35b60606003805461052e9061341e565b80601f016020809104026020016040519081016040528092919081815260200182805461055a9061341e565b80156105a75780601f1061057c576101008083540402835291602001916105a7565b820191906000526020600020905b81548152906001019060200180831161058a57829003601f168201915b5050505050905090565b60006105c56105be611453565b848461145b565b6001905092915050565b6000600254905090565b60006105e6848484611626565b6000600160008673ffffffffffffffffffffffffffffffffffffffff1673ffffffffffffffffffffffffffffffffffffffff1681526020019081526020016000206000610631611453565b73ffffffffffffffffffffffffffffffffffffffff1673ffffffffffffffffffffffffffffffffffffffff168152602001908152602001600020549050828110156106b1576040517f08c379a00000000000000000000000000000000000000000000000000000000081526004016106a89061309d565b60405180910390fd5b6106c5856106bd611453565b85840361145b565b60019150509392505050565b60006012905090565b60006106e46118a7565b905090565b600061078b6106f6611453565b848460016000610704611453565b73ffffffffffffffffffffffffffffffffffffffff1673ffffffffffffffffffffffffffffffffffffffff16815260200190815260200160002060008873ffffffffffffffffffffffffffffffffffffffff1673ffffffffffffffffffffffffffffffffffffffff168152602001908152602001600020546107869190613299565b61145b565b6001905092915050565b60004382106107d9576040517f08c379a00000000000000000000000000000000000000000000000000000000081526004016107d090612f5d565b60405180910390fd5b610821600760008573ffffffffffffffffffffffffffffffffffffffff1673ffffffffffffffffffffffffffffffffffffffff1681526020019081526020016000208361196a565b905092915050565b61083a610834611453565b82611ac2565b50565b6000600660008373ffffffffffffffffffffffffffffffffffffffff1673ffffffffffffffffffffffffffffffffffffffff16815260200190815260200160002060009054906101000a900473ffffffffffffffffffffffffffffffffffffffff169050919050565b6108b76108b1611453565b82611ad0565b50565b6000610907600760008473ffffffffffffffffffffffffffffffffffffffff1673ffffffffffffffffffffffffffffffffffffffff168152602001908152602001600020805490506113ba565b9050919050565b60008060008373ffffffffffffffffffffffffffffffffffffffff1673ffffffffffffffffffffffffffffffffffffffff168152602001908152602001600020549050919050565b600061096983610964611453565b610f8f565b9050818110156109ae576040517f08c379a00000000000000000000000000000000000000000000000000000000081526004016109a5906130fd565b60405180910390fd5b6109c2836109ba611453565b84840361145b565b6109cc8383611ac2565b505050565b6000610a1a600560008473ffffffffffffffffffffffffffffffffffffffff1673ffffffffffffffffffffffffffffffffffffffff168152602001908152602001600020611bea565b9050919050565b6000438210610a65576040517f08c379a0000000000000000000000000000000000000000000000000000000008152600401610a5c90612f5d565b60405180910390fd5b610a7060088361196a565b9050919050565b606060048054610a869061341e565b80601f0160208091040260200160405190810160405280929190818152602001828054610ab29061341e565b8015610aff5780601f10610ad457610100808354040283529160200191610aff565b820191906000526020600020905b815481529060010190602001808311610ae257829003601f168201915b5050505050905090565b600080600760008473ffffffffffffffffffffffffffffffffffffffff1673ffffffffffffffffffffffffffffffffffffffff16815260200190815260200160002080549050905060008114610c1757600760008473ffffffffffffffffffffffffffffffffffffffff1673ffffffffffffffffffffffffffffffffffffffff168152602001908152602001600020600182610ba59190613320565b81548110610bdc577f4e487b7100000000000000000000000000000000000000000000000000000000600052603260045260246000fd5b9060005260206000200160000160049054906101000a90047bffffffffffffffffffffffffffffffffffffffffffffffffffffffff16610c1a565b60005b7bffffffffffffffffffffffffffffffffffffffffffffffffffffffff16915050919050565b60008060016000610c4f611453565b73ffffffffffffffffffffffffffffffffffffffff1673ffffffffffffffffffffffffffffffffffffffff16815260200190815260200160002060008573ffffffffffffffffffffffffffffffffffffffff1673ffffffffffffffffffffffffffffffffffffffff16815260200190815260200160002054905082811015610d0c576040517f08c379a0000000000000000000000000000000000000000000000000000000008152600401610d039061319d565b60405180910390fd5b610d20610d17611453565b8585840361145b565b600191505092915050565b6000610d3f610d38611453565b8484611626565b6001905092915050565b83421115610d8c576040517f08c379a0000000000000000000000000000000000000000000000000000000008152600401610d8390612f7d565b60405180910390fd5b6000610dee610de67fe48329057bfd03d55e49b547132e39cffd9c1820ad7b9d4c5307691425d15adf898989604051602001610dcb9493929190612e1e565b60405160208183030381529060405280519060200120611bf8565b858585611c12565b9050610df981611d9d565b8614610e3a576040517f08c379a0000000000000000000000000000000000000000000000000000000008152600401610e3190612fbd565b60405180910390fd5b610e448188611ad0565b50505050505050565b83421115610e90576040517f08c379a0000000000000000000000000000000000000000000000000000000008152600401610e8790612ffd565b60405180910390fd5b60007f0000000000000000000000000000000000000000000000000000000000000000888888610ebf8c611d9d565b89604051602001610ed596959493929190612dbd565b6040516020818303038152906040528051906020012090506000610ef882611bf8565b90506000610f0882878787611c12565b90508973ffffffffffffffffffffffffffffffffffffffff168173ffffffffffffffffffffffffffffffffffffffff1614610f78576040517f08c379a0000000000000000000000000000000000000000000000000000000008152600401610f6f9061307d565b60405180910390fd5b610f838a8a8a61145b565b50505050505050505050565b6000600160008473ffffffffffffffffffffffffffffffffffffffff1673ffffffffffffffffffffffffffffffffffffffff16815260200190815260200160002060008373ffffffffffffffffffffffffffffffffffffffff1673ffffffffffffffffffffffffffffffffffffffff16815260200190815260200160002054905092915050565b61101e6125f6565b600760008473ffffffffffffffffffffffffffffffffffffffff1673ffffffffffffffffffffffffffffffffffffffff1681526020019081526020016000208263ffffffff168154811061109b577f4e487b7100000000000000000000000000000000000000000000000000000000600052603260045260246000fd5b906000526020600020016040518060400160405290816000820160009054906101000a900463ffffffff1663ffffffff1663ffffffff1681526020016000820160049054906101000a90047bffffffffffffffffffffffffffffffffffffffffffffffffffffffff167bffffffffffffffffffffffffffffffffffffffffffffffffffffffff167bffffffffffffffffffffffffffffffffffffffffffffffffffffffff1681525050905092915050565b61115682826111d9565b61115e611dfb565b7bffffffffffffffffffffffffffffffffffffffffffffffffffffffff166111846105cf565b11156111c5576040517f08c379a00000000000000000000000000000000000000000000000000000000081526004016111bc906130bd565b60405180910390fd5b6111d3600861133983611e1f565b50505050565b600073ffffffffffffffffffffffffffffffffffffffff168273ffffffffffffffffffffffffffffffffffffffff161415611249576040517f08c379a0000000000000000000000000000000000000000000000000000000008152600401611240906131bd565b60405180910390fd5b61125560008383612109565b80600260008282546112679190613299565b92505081905550806000808473ffffffffffffffffffffffffffffffffffffffff1673ffffffffffffffffffffffffffffffffffffffff16815260200190815260200160002060008282546112bc9190613299565b925050819055508173ffffffffffffffffffffffffffffffffffffffff16600073ffffffffffffffffffffffffffffffffffffffff167fddf252ad1be2c89b69c2b068fc378daa952ba7f163c4a11628f55a4df523b3ef8360405161132191906131f8565b60405180910390a36113356000838361210e565b5050565b600081836113479190613299565b905092915050565b60007bffffffffffffffffffffffffffffffffffffffffffffffffffffffff80168211156113b2576040517f08c379a00000000000000000000000000000000000000000000000000000000081526004016113a9906130dd565b60405180910390fd5b819050919050565b600063ffffffff8016821115611405576040517f08c379a00000000000000000000000000000000000000000000000000000000081526004016113fc9061315d565b60405180910390fd5b819050919050565b611418838383611438565b6114336114248461083d565b61142d8461083d565b8361211e565b505050565b505050565b6000818361144b9190613320565b905092915050565b600033905090565b600073ffffffffffffffffffffffffffffffffffffffff168373ffffffffffffffffffffffffffffffffffffffff1614156114cb576040517f08c379a00000000000000000000000000000000000000000000000000000000081526004016114c29061317d565b60405180910390fd5b600073ffffffffffffffffffffffffffffffffffffffff168273ffffffffffffffffffffffffffffffffffffffff16141561153b576040517f08c379a000000000000000000000000000000000000000000000000000000000815260040161153290612fdd565b60405180910390fd5b80600160008573ffffffffffffffffffffffffffffffffffffffff1673ffffffffffffffffffffffffffffffffffffffff16815260200190815260200160002060008473ffffffffffffffffffffffffffffffffffffffff1673ffffffffffffffffffffffffffffffffffffffff168152602001908152602001600020819055508173ffffffffffffffffffffffffffffffffffffffff168373ffffffffffffffffffffffffffffffffffffffff167f8c5be1e5ebec7d5bd14f71427d1e84f3dd0314c0f7b2291e5b200ac8c7c3b9258360405161161991906131f8565b60405180910390a3505050565b600073ffffffffffffffffffffffffffffffffffffffff168373ffffffffffffffffffffffffffffffffffffffff161415611696576040517f08c379a000000000000000000000000000000000000000000000000000000000815260040161168d9061313d565b60405180910390fd5b600073ffffffffffffffffffffffffffffffffffffffff168273ffffffffffffffffffffffffffffffffffffffff161415611706576040517f08c379a00000000000000000000000000000000000000000000000000000000081526004016116fd90612f3d565b60405180910390fd5b611711838383612109565b60008060008573ffffffffffffffffffffffffffffffffffffffff1673ffffffffffffffffffffffffffffffffffffffff16815260200190815260200160002054905081811015611797576040517f08c379a000000000000000000000000000000000000000000000000000000000815260040161178e9061301d565b60405180910390fd5b8181036000808673ffffffffffffffffffffffffffffffffffffffff1673ffffffffffffffffffffffffffffffffffffffff16815260200190815260200160002081905550816000808573ffffffffffffffffffffffffffffffffffffffff1673ffffffffffffffffffffffffffffffffffffffff168152602001908152602001600020600082825461182a9190613299565b925050819055508273ffffffffffffffffffffffffffffffffffffffff168473ffffffffffffffffffffffffffffffffffffffff167fddf252ad1be2c89b69c2b068fc378daa952ba7f163c4a11628f55a4df523b3ef8460405161188e91906131f8565b60405180910390a36118a184848461210e565b50505050565b60007f00000000000000000000000000000000000000000000000000000000000000004614156118f9577f00000000000000000000000000000000000000000000000000000000000000009050611967565b6119647f00000000000000000000000000000000000000000000000000000000000000007f00000000000000000000000000000000000000000000000000000000000000007f0000000000000000000000000000000000000000000000000000000000000000612317565b90505b90565b6000808380549050905060005b81811015611a0f57600061198b8284612351565b9050848682815481106119c7577f4e487b7100000000000000000000000000000000000000000000000000000000600052603260045260246000fd5b9060005260206000200160000160009054906101000a900463ffffffff1663ffffffff1611156119f957809250611a09565b600181611a069190613299565b91505b50611977565b60008214611a975784600183611a259190613320565b81548110611a5c577f4e487b7100000000000000000000000000000000000000000000000000000000600052603260045260246000fd5b9060005260206000200160000160049054906101000a90047bffffffffffffffffffffffffffffffffffffffffffffffffffffffff16611a9a565b60005b7bffffffffffffffffffffffffffffffffffffffffffffffffffffffff169250505092915050565b611acc82826123b8565b5050565b6000611adb8361083d565b90506000611ae88461090e565b905082600660008673ffffffffffffffffffffffffffffffffffffffff1673ffffffffffffffffffffffffffffffffffffffff16815260200190815260200160002060006101000a81548173ffffffffffffffffffffffffffffffffffffffff021916908373ffffffffffffffffffffffffffffffffffffffff1602179055508273ffffffffffffffffffffffffffffffffffffffff168273ffffffffffffffffffffffffffffffffffffffff168573ffffffffffffffffffffffffffffffffffffffff167f3134e8a2e6d97e929a7e54011ea5485d7d196dd5f0ba4d4ef95803e8e3fc257f60405160405180910390a4611be482848361211e565b50505050565b600081600001549050919050565b6000611c0b611c056118a7565b836123d6565b9050919050565b60007f7fffffffffffffffffffffffffffffff5d576e7357a4501ddfe92f46681b20a08260001c1115611c7a576040517f08c379a0000000000000000000000000000000000000000000000000000000008152600401611c719061303d565b60405180910390fd5b601b8460ff161480611c8f5750601c8460ff16145b611cce576040517f08c379a0000000000000000000000000000000000000000000000000000000008152600401611cc59061305d565b60405180910390fd5b600060018686868660405160008152602001604052604051611cf39493929190612eb6565b6020604051602081039080840390855afa158015611d15573d6000803e3d6000fd5b505050602060405103519050600073ffffffffffffffffffffffffffffffffffffffff168173ffffffffffffffffffffffffffffffffffffffff161415611d91576040517f08c379a0000000000000000000000000000000000000000000000000000000008152600401611d8890612f1d565b60405180910390fd5b80915050949350505050565b600080600560008473ffffffffffffffffffffffffffffffffffffffff1673ffffffffffffffffffffffffffffffffffffffff1681526020019081526020016000209050611dea81611bea565b9150611df581612409565b50919050565b60007bffffffffffffffffffffffffffffffffffffffffffffffffffffffff905090565b60008060008580549050905060008114611eb35785600182611e419190613320565b81548110611e78577f4e487b7100000000000000000000000000000000000000000000000000000000600052603260045260246000fd5b9060005260206000200160000160049054906101000a90047bffffffffffffffffffffffffffffffffffffffffffffffffffffffff16611eb6565b60005b7bffffffffffffffffffffffffffffffffffffffffffffffffffffffff169250611ee483858763ffffffff16565b9150600081118015611f5d57504386600183611f009190613320565b81548110611f37577f4e487b7100000000000000000000000000000000000000000000000000000000600052603260045260246000fd5b9060005260206000200160000160009054906101000a900463ffffffff1663ffffffff16145b1561201057611f6b8261134f565b86600183611f799190613320565b81548110611fb0577f4e487b7100000000000000000000000000000000000000000000000000000000600052603260045260246000fd5b9060005260206000200160000160046101000a8154817bffffffffffffffffffffffffffffffffffffffffffffffffffffffff02191690837bffffffffffffffffffffffffffffffffffffffffffffffffffffffff160217905550612100565b856040518060400160405280612025436113ba565b63ffffffff1681526020016120398561134f565b7bffffffffffffffffffffffffffffffffffffffffffffffffffffffff168152509080600181540180825580915050600190039060005260206000200160009091909190915060008201518160000160006101000a81548163ffffffff021916908363ffffffff16021790555060208201518160000160046101000a8154817bffffffffffffffffffffffffffffffffffffffffffffffffffffffff02191690837bffffffffffffffffffffffffffffffffffffffffffffffffffffffff16021790555050505b50935093915050565b505050565b61211983838361140d565b505050565b8173ffffffffffffffffffffffffffffffffffffffff168373ffffffffffffffffffffffffffffffffffffffff161415801561215a5750600081115b1561231257600073ffffffffffffffffffffffffffffffffffffffff168373ffffffffffffffffffffffffffffffffffffffff1614612238576000806121e1600760008773ffffffffffffffffffffffffffffffffffffffff1673ffffffffffffffffffffffffffffffffffffffff16815260200190815260200160002061143d85611e1f565b915091508473ffffffffffffffffffffffffffffffffffffffff167fdec2bacdd2f05b59de34da9b523dff8be42e5e38e818c82fdb0bae774387a724838360405161222d929190613213565b60405180910390a250505b600073ffffffffffffffffffffffffffffffffffffffff168273ffffffffffffffffffffffffffffffffffffffff1614612311576000806122ba600760008673ffffffffffffffffffffffffffffffffffffffff1673ffffffffffffffffffffffffffffffffffffffff16815260200190815260200160002061133985611e1f565b915091508373ffffffffffffffffffffffffffffffffffffffff167fdec2bacdd2f05b59de34da9b523dff8be42e5e38e818c82fdb0bae774387a7248383604051612306929190613213565b60405180910390a250505b5b505050565b60008383834630604051602001612332959493929190612e63565b6040516020818303038152906040528051906020012090509392505050565b600060028083612361919061345a565b60028561236e919061345a565b6123789190613299565b61238291906132ef565b60028361238f91906132ef565b60028561239c91906132ef565b6123a69190613299565b6123b09190613299565b905092915050565b6123c2828261241f565b6123d0600861143d83611e1f565b50505050565b600082826040516020016123eb929190612d35565b60405160208183030381529060405280519060200120905092915050565b6001816000016000828254019250508190555050565b600073ffffffffffffffffffffffffffffffffffffffff168273ffffffffffffffffffffffffffffffffffffffff16141561248f576040517f08c379a00000000000000000000000000000000000000000000000000000000081526004016124869061311d565b60405180910390fd5b61249b82600083612109565b60008060008473ffffffffffffffffffffffffffffffffffffffff1673ffffffffffffffffffffffffffffffffffffffff16815260200190815260200160002054905081811015612521576040517f08c379a000000000000000000000000000000000000000000000000000000000815260040161251890612f9d565b60405180910390fd5b8181036000808573ffffffffffffffffffffffffffffffffffffffff1673ffffffffffffffffffffffffffffffffffffffff1681526020019081526020016000208190555081600260008282546125789190613320565b92505081905550600073ffffffffffffffffffffffffffffffffffffffff168373ffffffffffffffffffffffffffffffffffffffff167fddf252ad1be2c89b69c2b068fc378daa952ba7f163c4a11628f55a4df523b3ef846040516125dd91906131f8565b60405180910390a36125f18360008461210e565b505050565b6040518060400160405280600063ffffffff16815260200160007bffffffffffffffffffffffffffffffffffffffffffffffffffffffff1681525090565b60008135905061264381613b12565b92915050565b60008135905061265881613b29565b92915050565b60008135905061266d81613b40565b92915050565b60008135905061268281613b57565b92915050565b60008135905061269781613b6e565b92915050565b6000602082840312156126af57600080fd5b60006126bd84828501612634565b91505092915050565b600080604083850312156126d957600080fd5b60006126e785828601612634565b92505060206126f885828601612634565b9150509250929050565b60008060006060848603121561271757600080fd5b600061272586828701612634565b935050602061273686828701612634565b92505060406127478682870161265e565b9150509250925092565b600080600080600080600060e0888a03121561276c57600080fd5b600061277a8a828b01612634565b975050602061278b8a828b01612634565b965050604061279c8a828b0161265e565b95505060606127ad8a828b0161265e565b94505060806127be8a828b01612688565b93505060a06127cf8a828b01612649565b92505060c06127e08a828b01612649565b91505092959891949750929550565b6000806040838503121561280257600080fd5b600061281085828601612634565b92505060206128218582860161265e565b9150509250929050565b60008060008060008060c0878903121561284457600080fd5b600061285289828a01612634565b965050602061286389828a0161265e565b955050604061287489828a0161265e565b945050606061288589828a01612688565b935050608061289689828a01612649565b92505060a06128a789828a01612649565b9150509295509295509295565b600080604083850312156128c757600080fd5b60006128d585828601612634565b92505060206128e685828601612673565b9150509250929050565b60006020828403121561290257600080fd5b60006129108482850161265e565b91505092915050565b61292281613354565b82525050565b61293181613366565b82525050565b61294081613372565b82525050565b61295761295282613372565b613450565b82525050565b600061296882613272565b612972818561327d565b93506129828185602086016133eb565b61298b81613518565b840191505092915050565b60006129a360188361327d565b91506129ae82613529565b602082019050919050565b60006129c660238361327d565b91506129d182613552565b604082019050919050565b60006129e9601f8361327d565b91506129f4826135a1565b602082019050919050565b6000612a0c601d8361327d565b9150612a17826135ca565b602082019050919050565b6000612a2f60228361327d565b9150612a3a826135f3565b604082019050919050565b6000612a5260198361327d565b9150612a5d82613642565b602082019050919050565b6000612a7560228361327d565b9150612a808261366b565b604082019050919050565b6000612a9860028361328e565b9150612aa3826136ba565b600282019050919050565b6000612abb601d8361327d565b9150612ac6826136e3565b602082019050919050565b6000612ade60268361327d565b9150612ae98261370c565b604082019050919050565b6000612b0160228361327d565b9150612b0c8261375b565b604082019050919050565b6000612b2460228361327d565b9150612b2f826137aa565b604082019050919050565b6000612b47601e8361327d565b9150612b52826137f9565b602082019050919050565b6000612b6a60288361327d565b9150612b7582613822565b604082019050919050565b6000612b8d60308361327d565b9150612b9882613871565b604082019050919050565b6000612bb060278361327d565b9150612bbb826138c0565b604082019050919050565b6000612bd360248361327d565b9150612bde8261390f565b604082019050919050565b6000612bf660218361327d565b9150612c018261395e565b604082019050919050565b6000612c1960258361327d565b9150612c24826139ad565b604082019050919050565b6000612c3c60268361327d565b9150612c47826139fc565b604082019050919050565b6000612c5f60248361327d565b9150612c6a82613a4b565b604082019050919050565b6000612c8260258361327d565b9150612c8d82613a9a565b604082019050919050565b6000612ca5601f8361327d565b9150612cb082613ae9565b602082019050919050565b604082016000820151612cd16000850182612d08565b506020820151612ce46020850182612cea565b50505050565b612cf38161339c565b82525050565b612d02816133c4565b82525050565b612d11816133ce565b82525050565b612d20816133ce565b82525050565b612d2f816133de565b82525050565b6000612d4082612a8b565b9150612d4c8285612946565b602082019150612d5c8284612946565b6020820191508190509392505050565b6000602082019050612d816000830184612919565b92915050565b6000602082019050612d9c6000830184612928565b92915050565b6000602082019050612db76000830184612937565b92915050565b600060c082019050612dd26000830189612937565b612ddf6020830188612919565b612dec6040830187612919565b612df96060830186612cf9565b612e066080830185612cf9565b612e1360a0830184612cf9565b979650505050505050565b6000608082019050612e336000830187612937565b612e406020830186612919565b612e4d6040830185612cf9565b612e5a6060830184612cf9565b95945050505050565b600060a082019050612e786000830188612937565b612e856020830187612937565b612e926040830186612937565b612e9f6060830185612cf9565b612eac6080830184612919565b9695505050505050565b6000608082019050612ecb6000830187612937565b612ed86020830186612d26565b612ee56040830185612937565b612ef26060830184612937565b95945050505050565b60006020820190508181036000830152612f15818461295d565b905092915050565b60006020820190508181036000830152612f3681612996565b9050919050565b60006020820190508181036000830152612f56816129b9565b9050919050565b60006020820190508181036000830152612f76816129dc565b9050919050565b60006020820190508181036000830152612f96816129ff565b9050919050565b60006020820190508181036000830152612fb681612a22565b9050919050565b60006020820190508181036000830152612fd681612a45565b9050919050565b60006020820190508181036000830152612ff681612a68565b9050919050565b6000602082019050818103600083015261301681612aae565b9050919050565b6000602082019050818103600083015261303681612ad1565b9050919050565b6000602082019050818103600083015261305681612af4565b9050919050565b6000602082019050818103600083015261307681612b17565b9050919050565b6000602082019050818103600083015261309681612b3a565b9050919050565b600060208201905081810360008301526130b681612b5d565b9050919050565b600060208201905081810360008301526130d681612b80565b9050919050565b600060208201905081810360008301526130f681612ba3565b9050919050565b6000602082019050818103600083015261311681612bc6565b9050919050565b6000602082019050818103600083015261313681612be9565b9050919050565b6000602082019050818103600083015261315681612c0c565b9050919050565b6000602082019050818103600083015261317681612c2f565b9050919050565b6000602082019050818103600083015261319681612c52565b9050919050565b600060208201905081810360008301526131b681612c75565b9050919050565b600060208201905081810360008301526131d681612c98565b9050919050565b60006040820190506131f26000830184612cbb565b92915050565b600060208201905061320d6000830184612cf9565b92915050565b60006040820190506132286000830185612cf9565b6132356020830184612cf9565b9392505050565b60006020820190506132516000830184612d17565b92915050565b600060208201905061326c6000830184612d26565b92915050565b600081519050919050565b600082825260208201905092915050565b600081905092915050565b60006132a4826133c4565b91506132af836133c4565b9250827fffffffffffffffffffffffffffffffffffffffffffffffffffffffffffffffff038211156132e4576132e361348b565b5b828201905092915050565b60006132fa826133c4565b9150613305836133c4565b925082613315576133146134ba565b5b828204905092915050565b600061332b826133c4565b9150613336836133c4565b9250828210156133495761334861348b565b5b828203905092915050565b600061335f8261337c565b9050919050565b60008115159050919050565b6000819050919050565b600073ffffffffffffffffffffffffffffffffffffffff82169050919050565b60007bffffffffffffffffffffffffffffffffffffffffffffffffffffffff82169050919050565b6000819050919050565b600063ffffffff82169050919050565b600060ff82169050919050565b60005b838110156134095780820151818401526020810190506133ee565b83811115613418576000848401525b50505050565b6000600282049050600182168061343657607f821691505b6020821081141561344a576134496134e9565b5b50919050565b6000819050919050565b6000613465826133c4565b9150613470836133c4565b9250826134805761347f6134ba565b5b828206905092915050565b7f4e487b7100000000000000000000000000000000000000000000000000000000600052601160045260246000fd5b7f4e487b7100000000000000000000000000000000000000000000000000000000600052601260045260246000fd5b7f4e487b7100000000000000000000000000000000000000000000000000000000600052602260045260246000fd5b6000601f19601f8301169050919050565b7f45434453413a20696e76616c6964207369676e61747572650000000000000000600082015250565b7f45524332303a207472616e7366657220746f20746865207a65726f206164647260008201527f6573730000000000000000000000000000000000000000000000000000000000602082015250565b7f4552433230566f7465733a20626c6f636b206e6f7420796574206d696e656400600082015250565b7f4552433230566f7465733a207369676e61747572652065787069726564000000600082015250565b7f45524332303a206275726e20616d6f756e7420657863656564732062616c616e60008201527f6365000000000000000000000000000000000000000000000000000000000000602082015250565b7f4552433230566f7465733a20696e76616c6964206e6f6e636500000000000000600082015250565b7f45524332303a20617070726f766520746f20746865207a65726f20616464726560008201527f7373000000000000000000000000000000000000000000000000000000000000602082015250565b7f1901000000000000000000000000000000000000000000000000000000000000600082015250565b7f45524332305065726d69743a206578706972656420646561646c696e65000000600082015250565b7f45524332303a207472616e7366657220616d6f756e742065786365656473206260008201527f616c616e63650000000000000000000000000000000000000000000000000000602082015250565b7f45434453413a20696e76616c6964207369676e6174757265202773272076616c60008201527f7565000000000000000000000000000000000000000000000000000000000000602082015250565b7f45434453413a20696e76616c6964207369676e6174757265202776272076616c60008201527f7565000000000000000000000000000000000000000000000000000000000000602082015250565b7f45524332305065726d69743a20696e76616c6964207369676e61747572650000600082015250565b7f45524332303a207472616e7366657220616d6f756e742065786365656473206160008201527f6c6c6f77616e6365000000000000000000000000000000000000000000000000602082015250565b7f4552433230566f7465733a20746f74616c20737570706c79207269736b73206f60008201527f766572666c6f77696e6720766f74657300000000000000000000000000000000602082015250565b7f53616665436173743a2076616c756520646f65736e27742066697420696e203260008201527f3234206269747300000000000000000000000000000000000000000000000000602082015250565b7f45524332303a206275726e20616d6f756e74206578636565647320616c6c6f7760008201527f616e636500000000000000000000000000000000000000000000000000000000602082015250565b7f45524332303a206275726e2066726f6d20746865207a65726f2061646472657360008201527f7300000000000000000000000000000000000000000000000000000000000000602082015250565b7f45524332303a207472616e736665722066726f6d20746865207a65726f20616460008201527f6472657373000000000000000000000000000000000000000000000000000000602082015250565b7f53616665436173743a2076616c756520646f65736e27742066697420696e203360008201527f3220626974730000000000000000000000000000000000000000000000000000602082015250565b7f45524332303a20617070726f76652066726f6d20746865207a65726f2061646460008201527f7265737300000000000000000000000000000000000000000000000000000000602082015250565b7f45524332303a2064656372656173656420616c6c6f77616e63652062656c6f7760008201527f207a65726f000000000000000000000000000000000000000000000000000000602082015250565b7f45524332303a206d696e7420746f20746865207a65726f206164647265737300600082015250565b613b1b81613354565b8114613b2657600080fd5b50565b613b3281613372565b8114613b3d57600080fd5b50565b613b49816133c4565b8114613b5457600080fd5b50565b613b60816133ce565b8114613b6b57600080fd5b50565b613b77816133de565b8114613b8257600080fd5b5056fea26469706673582212204eca6ffb79262d36b1796eeb20344f5bb2490306c6d37589bd447cc8a552eece64736f6c63430008040033",
  "linkReferences": {},
  "deployedLinkReferences": {}
}