{
  "_format": "hh-sol-artifact-1",
  "contractName": "Xvault",
  "sourceName": "contracts/Xvault.sol",
  "abi": [
    {
      "inputs": [
        {
          "internalType": "contract XfolioToken",
          "name": "_tokenContract",
          "type": "address"
        }
      ],
      "stateMutability": "nonpayable",
      "type": "constructor"
    },
    {
      "anonymous": false,
      "inputs": [
        {
          "indexed": true,
          "internalType": "bytes32",
          "name": "role",
          "type": "bytes32"
        },
        {
          "indexed": true,
          "internalType": "bytes32",
          "name": "previousAdminRole",
          "type": "bytes32"
        },
        {
          "indexed": true,
          "internalType": "bytes32",
          "name": "newAdminRole",
          "type": "bytes32"
        }
      ],
      "name": "RoleAdminChanged",
      "type": "event"
    },
    {
      "anonymous": false,
      "inputs": [
        {
          "indexed": true,
          "internalType": "bytes32",
          "name": "role",
          "type": "bytes32"
        },
        {
          "indexed": true,
          "internalType": "address",
          "name": "account",
          "type": "address"
        },
        {
          "indexed": true,
          "internalType": "address",
          "name": "sender",
          "type": "address"
        }
      ],
      "name": "RoleGranted",
      "type": "event"
    },
    {
      "anonymous": false,
      "inputs": [
        {
          "indexed": true,
          "internalType": "bytes32",
          "name": "role",
          "type": "bytes32"
        },
        {
          "indexed": true,
          "internalType": "address",
          "name": "account",
          "type": "address"
        },
        {
          "indexed": true,
          "internalType": "address",
          "name": "sender",
          "type": "address"
        }
      ],
      "name": "RoleRevoked",
      "type": "event"
    },
    {
      "anonymous": false,
      "inputs": [
        {
          "indexed": false,
          "internalType": "address",
          "name": "recipient",
          "type": "address"
        },
        {
          "indexed": false,
          "internalType": "uint256",
          "name": "amount",
          "type": "uint256"
        }
      ],
      "name": "XFLTransfer",
      "type": "event"
    },
    {
      "inputs": [],
      "name": "DEFAULT_ADMIN_ROLE",
      "outputs": [
        {
          "internalType": "bytes32",
          "name": "",
          "type": "bytes32"
        }
      ],
      "stateMutability": "view",
      "type": "function"
    },
    {
      "inputs": [],
      "name": "MODERATOR",
      "outputs": [
        {
          "internalType": "bytes32",
          "name": "",
          "type": "bytes32"
        }
      ],
      "stateMutability": "view",
      "type": "function"
    },
    {
      "inputs": [
        {
          "internalType": "bytes32",
          "name": "role",
          "type": "bytes32"
        }
      ],
      "name": "getRoleAdmin",
      "outputs": [
        {
          "internalType": "bytes32",
          "name": "",
          "type": "bytes32"
        }
      ],
      "stateMutability": "view",
      "type": "function"
    },
    {
      "inputs": [
        {
          "internalType": "bytes32",
          "name": "role",
          "type": "bytes32"
        },
        {
          "internalType": "address",
          "name": "account",
          "type": "address"
        }
      ],
      "name": "grantRole",
      "outputs": [],
      "stateMutability": "nonpayable",
      "type": "function"
    },
    {
      "inputs": [
        {
          "internalType": "bytes32",
          "name": "role",
          "type": "bytes32"
        },
        {
          "internalType": "address",
          "name": "account",
          "type": "address"
        }
      ],
      "name": "hasRole",
      "outputs": [
        {
          "internalType": "bool",
          "name": "",
          "type": "bool"
        }
      ],
      "stateMutability": "view",
      "type": "function"
    },
    {
      "inputs": [
        {
          "internalType": "bytes32",
          "name": "role",
          "type": "bytes32"
        },
        {
          "internalType": "address",
          "name": "account",
          "type": "address"
        }
      ],
      "name": "renounceRole",
      "outputs": [],
      "stateMutability": "nonpayable",
      "type": "function"
    },
    {
      "inputs": [
        {
          "internalType": "bytes32",
          "name": "role",
          "type": "bytes32"
        },
        {
          "internalType": "address",
          "name": "account",
          "type": "address"
        }
      ],
      "name": "revokeRole",
      "outputs": [],
      "stateMutability": "nonpayable",
      "type": "function"
    },
    {
      "inputs": [
        {
          "internalType": "bytes4",
          "name": "interfaceId",
          "type": "bytes4"
        }
      ],
      "name": "supportsInterface",
      "outputs": [
        {
          "internalType": "bool",
          "name": "",
          "type": "bool"
        }
      ],
      "stateMutability": "view",
      "type": "function"
    },
    {
      "inputs": [],
      "name": "tokenContract",
      "outputs": [
        {
          "internalType": "contract XfolioToken",
          "name": "",
          "type": "address"
        }
      ],
      "stateMutability": "view",
      "type": "function"
    },
    {
      "inputs": [
        {
          "internalType": "address",
          "name": "_recipient",
          "type": "address"
        },
        {
          "internalType": "uint256",
          "name": "_amount",
          "type": "uint256"
        }
      ],
      "name": "transferXFL",
      "outputs": [],
      "stateMutability": "nonpayable",
      "type": "function"
    }
  ],
  "bytecode": "0x60806040523480156200001157600080fd5b506040516200161e3803806200161e833981810160405281019062000037919062000224565b80600160006101000a81548173ffffffffffffffffffffffffffffffffffffffff021916908373ffffffffffffffffffffffffffffffffffffffff1602179055506200008d6000801b336200009460201b60201c565b50620002b2565b620000a68282620000aa60201b60201c565b5050565b620000bc82826200019b60201b60201c565b6200019757600160008084815260200190815260200160002060000160008373ffffffffffffffffffffffffffffffffffffffff1673ffffffffffffffffffffffffffffffffffffffff16815260200190815260200160002060006101000a81548160ff0219169083151502179055506200013c6200020560201b60201c565b73ffffffffffffffffffffffffffffffffffffffff168173ffffffffffffffffffffffffffffffffffffffff16837f2f8788117e7eff1d82e926ec794901d17c78024a50270940304540a733656f0d60405160405180910390a45b5050565b600080600084815260200190815260200160002060000160008373ffffffffffffffffffffffffffffffffffffffff1673ffffffffffffffffffffffffffffffffffffffff16815260200190815260200160002060009054906101000a900460ff16905092915050565b600033905090565b6000815190506200021e8162000298565b92915050565b6000602082840312156200023757600080fd5b600062000247848285016200020d565b91505092915050565b60006200025d8262000278565b9050919050565b6000620002718262000250565b9050919050565b600073ffffffffffffffffffffffffffffffffffffffff82169050919050565b620002a38162000264565b8114620002af57600080fd5b50565b61135c80620002c26000396000f3fe608060405234801561001057600080fd5b506004361061009e5760003560e01c80633b28c126116100665780633b28c1261461015957806355a373d61461017557806391d1485414610193578063a217fddf146101c3578063d547741f146101e15761009e565b806301ffc9a7146100a3578063248a9ca3146100d35780632f2ff15d1461010357806334b4e6251461011f57806336568abe1461013d575b600080fd5b6100bd60048036038101906100b89190610d0f565b6101fd565b6040516100ca9190610f20565b60405180910390f35b6100ed60048036038101906100e89190610caa565b610277565b6040516100fa9190610f3b565b60405180910390f35b61011d60048036038101906101189190610cd3565b610296565b005b6101276102bf565b6040516101349190610f3b565b60405180910390f35b61015760048036038101906101529190610cd3565b6102e3565b005b610173600480360381019061016e9190610c45565b610366565b005b61017d61053d565b60405161018a9190610f56565b60405180910390f35b6101ad60048036038101906101a89190610cd3565b610563565b6040516101ba9190610f20565b60405180910390f35b6101cb6105cd565b6040516101d89190610f3b565b60405180910390f35b6101fb60048036038101906101f69190610cd3565b6105d4565b005b60007f7965db0b000000000000000000000000000000000000000000000000000000007bffffffffffffffffffffffffffffffffffffffffffffffffffffffff1916827bffffffffffffffffffffffffffffffffffffffffffffffffffffffff19161480610270575061026f826105fd565b5b9050919050565b6000806000838152602001908152602001600020600101549050919050565b61029f82610277565b6102b0816102ab610667565b61066f565b6102ba838361070c565b505050565b7f58c8e11deab7910e89bf18a1168c6e6ef28748f00fd3094549459f01cec5e0aa81565b6102eb610667565b73ffffffffffffffffffffffffffffffffffffffff168173ffffffffffffffffffffffffffffffffffffffff1614610358576040517f08c379a000000000000000000000000000000000000000000000000000000000815260040161034f90610fb3565b60405180910390fd5b61036282826107ec565b5050565b7f58c8e11deab7910e89bf18a1168c6e6ef28748f00fd3094549459f01cec5e0aa61039881610393610667565b61066f565b81600160009054906101000a900473ffffffffffffffffffffffffffffffffffffffff1673ffffffffffffffffffffffffffffffffffffffff166370a08231306040518263ffffffff1660e01b81526004016103f49190610edc565b60206040518083038186803b15801561040c57600080fd5b505afa158015610420573d6000803e3d6000fd5b505050506040513d601f19601f820116820180604052508101906104449190610d38565b101561044f57600080fd5b600160009054906101000a900473ffffffffffffffffffffffffffffffffffffffff1673ffffffffffffffffffffffffffffffffffffffff1663a9059cbb84846040518363ffffffff1660e01b81526004016104ac929190610ef7565b602060405180830381600087803b1580156104c657600080fd5b505af11580156104da573d6000803e3d6000fd5b505050506040513d601f19601f820116820180604052508101906104fe9190610c81565b507f3cbb71cc61e1e25c0e911fd29c554ce7b553b2dc390c29fb590a38894131297c8383604051610530929190610ef7565b60405180910390a1505050565b600160009054906101000a900473ffffffffffffffffffffffffffffffffffffffff1681565b600080600084815260200190815260200160002060000160008373ffffffffffffffffffffffffffffffffffffffff1673ffffffffffffffffffffffffffffffffffffffff16815260200190815260200160002060009054906101000a900460ff16905092915050565b6000801b81565b6105dd82610277565b6105ee816105e9610667565b61066f565b6105f883836107ec565b505050565b60007f01ffc9a7000000000000000000000000000000000000000000000000000000007bffffffffffffffffffffffffffffffffffffffffffffffffffffffff1916827bffffffffffffffffffffffffffffffffffffffffffffffffffffffff1916149050919050565b600033905090565b6106798282610563565b6107085761069e8173ffffffffffffffffffffffffffffffffffffffff1660146108cd565b6106ac8360001c60206108cd565b6040516020016106bd929190610ea2565b6040516020818303038152906040526040517f08c379a00000000000000000000000000000000000000000000000000000000081526004016106ff9190610f71565b60405180910390fd5b5050565b6107168282610563565b6107e857600160008084815260200190815260200160002060000160008373ffffffffffffffffffffffffffffffffffffffff1673ffffffffffffffffffffffffffffffffffffffff16815260200190815260200160002060006101000a81548160ff02191690831515021790555061078d610667565b73ffffffffffffffffffffffffffffffffffffffff168173ffffffffffffffffffffffffffffffffffffffff16837f2f8788117e7eff1d82e926ec794901d17c78024a50270940304540a733656f0d60405160405180910390a45b5050565b6107f68282610563565b156108c957600080600084815260200190815260200160002060000160008373ffffffffffffffffffffffffffffffffffffffff1673ffffffffffffffffffffffffffffffffffffffff16815260200190815260200160002060006101000a81548160ff02191690831515021790555061086e610667565b73ffffffffffffffffffffffffffffffffffffffff168173ffffffffffffffffffffffffffffffffffffffff16837ff6391f5c32d9c69d2a47ea670b442974b53935d1edc7fd64eb21e047a839171b60405160405180910390a45b5050565b6060600060028360026108e09190611050565b6108ea9190610ffa565b67ffffffffffffffff811115610929577f4e487b7100000000000000000000000000000000000000000000000000000000600052604160045260246000fd5b6040519080825280601f01601f19166020018201604052801561095b5781602001600182028036833780820191505090505b5090507f3000000000000000000000000000000000000000000000000000000000000000816000815181106109b9577f4e487b7100000000000000000000000000000000000000000000000000000000600052603260045260246000fd5b60200101907effffffffffffffffffffffffffffffffffffffffffffffffffffffffffffff1916908160001a9053507f780000000000000000000000000000000000000000000000000000000000000081600181518110610a43577f4e487b7100000000000000000000000000000000000000000000000000000000600052603260045260246000fd5b60200101907effffffffffffffffffffffffffffffffffffffffffffffffffffffffffffff1916908160001a90535060006001846002610a839190611050565b610a8d9190610ffa565b90505b6001811115610b79577f3031323334353637383961626364656600000000000000000000000000000000600f861660108110610af5577f4e487b7100000000000000000000000000000000000000000000000000000000600052603260045260246000fd5b1a60f81b828281518110610b32577f4e487b7100000000000000000000000000000000000000000000000000000000600052603260045260246000fd5b60200101907effffffffffffffffffffffffffffffffffffffffffffffffffffffffffffff1916908160001a905350600485901c945080610b729061117f565b9050610a90565b5060008414610bbd576040517f08c379a0000000000000000000000000000000000000000000000000000000008152600401610bb490610f93565b60405180910390fd5b8091505092915050565b600081359050610bd6816112b3565b92915050565b600081519050610beb816112ca565b92915050565b600081359050610c00816112e1565b92915050565b600081359050610c15816112f8565b92915050565b600081359050610c2a8161130f565b92915050565b600081519050610c3f8161130f565b92915050565b60008060408385031215610c5857600080fd5b6000610c6685828601610bc7565b9250506020610c7785828601610c1b565b9150509250929050565b600060208284031215610c9357600080fd5b6000610ca184828501610bdc565b91505092915050565b600060208284031215610cbc57600080fd5b6000610cca84828501610bf1565b91505092915050565b60008060408385031215610ce657600080fd5b6000610cf485828601610bf1565b9250506020610d0585828601610bc7565b9150509250929050565b600060208284031215610d2157600080fd5b6000610d2f84828501610c06565b91505092915050565b600060208284031215610d4a57600080fd5b6000610d5884828501610c30565b91505092915050565b610d6a816110aa565b82525050565b610d79816110bc565b82525050565b610d88816110c8565b82525050565b610d9781611128565b82525050565b6000610da882610fd3565b610db28185610fde565b9350610dc281856020860161114c565b610dcb816111d8565b840191505092915050565b6000610de182610fd3565b610deb8185610fef565b9350610dfb81856020860161114c565b80840191505092915050565b6000610e14602083610fde565b9150610e1f826111e9565b602082019050919050565b6000610e37601783610fef565b9150610e4282611212565b601782019050919050565b6000610e5a601183610fef565b9150610e658261123b565b601182019050919050565b6000610e7d602f83610fde565b9150610e8882611264565b604082019050919050565b610e9c8161111e565b82525050565b6000610ead82610e2a565b9150610eb98285610dd6565b9150610ec482610e4d565b9150610ed08284610dd6565b91508190509392505050565b6000602082019050610ef16000830184610d61565b92915050565b6000604082019050610f0c6000830185610d61565b610f196020830184610e93565b9392505050565b6000602082019050610f356000830184610d70565b92915050565b6000602082019050610f506000830184610d7f565b92915050565b6000602082019050610f6b6000830184610d8e565b92915050565b60006020820190508181036000830152610f8b8184610d9d565b905092915050565b60006020820190508181036000830152610fac81610e07565b9050919050565b60006020820190508181036000830152610fcc81610e70565b9050919050565b600081519050919050565b600082825260208201905092915050565b600081905092915050565b60006110058261111e565b91506110108361111e565b9250827fffffffffffffffffffffffffffffffffffffffffffffffffffffffffffffffff03821115611045576110446111a9565b5b828201905092915050565b600061105b8261111e565b91506110668361111e565b9250817fffffffffffffffffffffffffffffffffffffffffffffffffffffffffffffffff048311821515161561109f5761109e6111a9565b5b828202905092915050565b60006110b5826110fe565b9050919050565b60008115159050919050565b6000819050919050565b60007fffffffff0000000000000000000000000000000000000000000000000000000082169050919050565b600073ffffffffffffffffffffffffffffffffffffffff82169050919050565b6000819050919050565b60006111338261113a565b9050919050565b6000611145826110fe565b9050919050565b60005b8381101561116a57808201518184015260208101905061114f565b83811115611179576000848401525b50505050565b600061118a8261111e565b9150600082141561119e5761119d6111a9565b5b600182039050919050565b7f4e487b7100000000000000000000000000000000000000000000000000000000600052601160045260246000fd5b6000601f19601f8301169050919050565b7f537472696e67733a20686578206c656e67746820696e73756666696369656e74600082015250565b7f416363657373436f6e74726f6c3a206163636f756e7420000000000000000000600082015250565b7f206973206d697373696e6720726f6c6520000000000000000000000000000000600082015250565b7f416363657373436f6e74726f6c3a2063616e206f6e6c792072656e6f756e636560008201527f20726f6c657320666f722073656c660000000000000000000000000000000000602082015250565b6112bc816110aa565b81146112c757600080fd5b50565b6112d3816110bc565b81146112de57600080fd5b50565b6112ea816110c8565b81146112f557600080fd5b50565b611301816110d2565b811461130c57600080fd5b50565b6113188161111e565b811461132357600080fd5b5056fea26469706673582212206cae19426fea3d9680795428841a24e3573367331a7da35ff046ed4a57cc37a564736f6c63430008040033",
  "linkReferences": {},
  "deployedLinkReferences": {}
}