{
  "_format": "hh-sol-artifact-1",
  "contractName": "Xvault",
  "sourceName": "contracts/Xvault.sol",
  "abi": [
    {
      "inputs": [
        {
          "internalType": "contract XfolioToken",
          "name": "_tokenContract",
          "type": "address"
        }
      ],
      "stateMutability": "nonpayable",
      "type": "constructor"
    },
    {
      "anonymous": false,
      "inputs": [
        {
          "indexed": true,
          "internalType": "bytes32",
          "name": "role",
          "type": "bytes32"
        },
        {
          "indexed": true,
          "internalType": "bytes32",
          "name": "previousAdminRole",
          "type": "bytes32"
        },
        {
          "indexed": true,
          "internalType": "bytes32",
          "name": "newAdminRole",
          "type": "bytes32"
        }
      ],
      "name": "RoleAdminChanged",
      "type": "event"
    },
    {
      "anonymous": false,
      "inputs": [
        {
          "indexed": true,
          "internalType": "bytes32",
          "name": "role",
          "type": "bytes32"
        },
        {
          "indexed": true,
          "internalType": "address",
          "name": "account",
          "type": "address"
        },
        {
          "indexed": true,
          "internalType": "address",
          "name": "sender",
          "type": "address"
        }
      ],
      "name": "RoleGranted",
      "type": "event"
    },
    {
      "anonymous": false,
      "inputs": [
        {
          "indexed": true,
          "internalType": "bytes32",
          "name": "role",
          "type": "bytes32"
        },
        {
          "indexed": true,
          "internalType": "address",
          "name": "account",
          "type": "address"
        },
        {
          "indexed": true,
          "internalType": "address",
          "name": "sender",
          "type": "address"
        }
      ],
      "name": "RoleRevoked",
      "type": "event"
    },
    {
      "inputs": [],
      "name": "DEFAULT_ADMIN_ROLE",
      "outputs": [
        {
          "internalType": "bytes32",
          "name": "",
          "type": "bytes32"
        }
      ],
      "stateMutability": "view",
      "type": "function"
    },
    {
      "inputs": [],
      "name": "MODERATOR",
      "outputs": [
        {
          "internalType": "bytes32",
          "name": "",
          "type": "bytes32"
        }
      ],
      "stateMutability": "view",
      "type": "function"
    },
    {
      "inputs": [
        {
          "internalType": "bytes32",
          "name": "role",
          "type": "bytes32"
        }
      ],
      "name": "getRoleAdmin",
      "outputs": [
        {
          "internalType": "bytes32",
          "name": "",
          "type": "bytes32"
        }
      ],
      "stateMutability": "view",
      "type": "function"
    },
    {
      "inputs": [
        {
          "internalType": "bytes32",
          "name": "role",
          "type": "bytes32"
        },
        {
          "internalType": "address",
          "name": "account",
          "type": "address"
        }
      ],
      "name": "grantRole",
      "outputs": [],
      "stateMutability": "nonpayable",
      "type": "function"
    },
    {
      "inputs": [
        {
          "internalType": "bytes32",
          "name": "role",
          "type": "bytes32"
        },
        {
          "internalType": "address",
          "name": "account",
          "type": "address"
        }
      ],
      "name": "hasRole",
      "outputs": [
        {
          "internalType": "bool",
          "name": "",
          "type": "bool"
        }
      ],
      "stateMutability": "view",
      "type": "function"
    },
    {
      "inputs": [
        {
          "internalType": "bytes32",
          "name": "role",
          "type": "bytes32"
        },
        {
          "internalType": "address",
          "name": "account",
          "type": "address"
        }
      ],
      "name": "renounceRole",
      "outputs": [],
      "stateMutability": "nonpayable",
      "type": "function"
    },
    {
      "inputs": [
        {
          "internalType": "bytes32",
          "name": "role",
          "type": "bytes32"
        },
        {
          "internalType": "address",
          "name": "account",
          "type": "address"
        }
      ],
      "name": "revokeRole",
      "outputs": [],
      "stateMutability": "nonpayable",
      "type": "function"
    },
    {
      "inputs": [
        {
          "internalType": "bytes4",
          "name": "interfaceId",
          "type": "bytes4"
        }
      ],
      "name": "supportsInterface",
      "outputs": [
        {
          "internalType": "bool",
          "name": "",
          "type": "bool"
        }
      ],
      "stateMutability": "view",
      "type": "function"
    },
    {
      "inputs": [],
      "name": "tokenContract",
      "outputs": [
        {
          "internalType": "contract XfolioToken",
          "name": "",
          "type": "address"
        }
      ],
      "stateMutability": "view",
      "type": "function"
    },
    {
      "inputs": [
        {
          "internalType": "address",
          "name": "_recipient",
          "type": "address"
        },
        {
          "internalType": "uint256",
          "name": "_amount",
          "type": "uint256"
        }
      ],
      "name": "transferXFL",
      "outputs": [],
      "stateMutability": "nonpayable",
      "type": "function"
    }
  ],
  "bytecode": "0x60806040523480156200001157600080fd5b50604051620015e5380380620015e5833981810160405281019062000037919062000224565b80600160006101000a81548173ffffffffffffffffffffffffffffffffffffffff021916908373ffffffffffffffffffffffffffffffffffffffff1602179055506200008d6000801b336200009460201b60201c565b50620002b2565b620000a68282620000aa60201b60201c565b5050565b620000bc82826200019b60201b60201c565b6200019757600160008084815260200190815260200160002060000160008373ffffffffffffffffffffffffffffffffffffffff1673ffffffffffffffffffffffffffffffffffffffff16815260200190815260200160002060006101000a81548160ff0219169083151502179055506200013c6200020560201b60201c565b73ffffffffffffffffffffffffffffffffffffffff168173ffffffffffffffffffffffffffffffffffffffff16837f2f8788117e7eff1d82e926ec794901d17c78024a50270940304540a733656f0d60405160405180910390a45b5050565b600080600084815260200190815260200160002060000160008373ffffffffffffffffffffffffffffffffffffffff1673ffffffffffffffffffffffffffffffffffffffff16815260200190815260200160002060009054906101000a900460ff16905092915050565b600033905090565b6000815190506200021e8162000298565b92915050565b6000602082840312156200023757600080fd5b600062000247848285016200020d565b91505092915050565b60006200025d8262000278565b9050919050565b6000620002718262000250565b9050919050565b600073ffffffffffffffffffffffffffffffffffffffff82169050919050565b620002a38162000264565b8114620002af57600080fd5b50565b61132380620002c26000396000f3fe608060405234801561001057600080fd5b506004361061009e5760003560e01c80633b28c126116100665780633b28c1261461015957806355a373d61461017557806391d1485414610193578063a217fddf146101c3578063d547741f146101e15761009e565b806301ffc9a7146100a3578063248a9ca3146100d35780632f2ff15d1461010357806334b4e6251461011f57806336568abe1461013d575b600080fd5b6100bd60048036038101906100b89190610cd6565b6101fd565b6040516100ca9190610ee7565b60405180910390f35b6100ed60048036038101906100e89190610c71565b610277565b6040516100fa9190610f02565b60405180910390f35b61011d60048036038101906101189190610c9a565b610296565b005b6101276102bf565b6040516101349190610f02565b60405180910390f35b61015760048036038101906101529190610c9a565b6102e3565b005b610173600480360381019061016e9190610c0c565b610366565b005b61017d610504565b60405161018a9190610f1d565b60405180910390f35b6101ad60048036038101906101a89190610c9a565b61052a565b6040516101ba9190610ee7565b60405180910390f35b6101cb610594565b6040516101d89190610f02565b60405180910390f35b6101fb60048036038101906101f69190610c9a565b61059b565b005b60007f7965db0b000000000000000000000000000000000000000000000000000000007bffffffffffffffffffffffffffffffffffffffffffffffffffffffff1916827bffffffffffffffffffffffffffffffffffffffffffffffffffffffff19161480610270575061026f826105c4565b5b9050919050565b6000806000838152602001908152602001600020600101549050919050565b61029f82610277565b6102b0816102ab61062e565b610636565b6102ba83836106d3565b505050565b7f58c8e11deab7910e89bf18a1168c6e6ef28748f00fd3094549459f01cec5e0aa81565b6102eb61062e565b73ffffffffffffffffffffffffffffffffffffffff168173ffffffffffffffffffffffffffffffffffffffff1614610358576040517f08c379a000000000000000000000000000000000000000000000000000000000815260040161034f90610f7a565b60405180910390fd5b61036282826107b3565b5050565b7f58c8e11deab7910e89bf18a1168c6e6ef28748f00fd3094549459f01cec5e0aa6103988161039361062e565b610636565b81600160009054906101000a900473ffffffffffffffffffffffffffffffffffffffff1673ffffffffffffffffffffffffffffffffffffffff166370a08231306040518263ffffffff1660e01b81526004016103f49190610ea3565b60206040518083038186803b15801561040c57600080fd5b505afa158015610420573d6000803e3d6000fd5b505050506040513d601f19601f820116820180604052508101906104449190610cff565b101561044f57600080fd5b600160009054906101000a900473ffffffffffffffffffffffffffffffffffffffff1673ffffffffffffffffffffffffffffffffffffffff1663a9059cbb84846040518363ffffffff1660e01b81526004016104ac929190610ebe565b602060405180830381600087803b1580156104c657600080fd5b505af11580156104da573d6000803e3d6000fd5b505050506040513d601f19601f820116820180604052508101906104fe9190610c48565b50505050565b600160009054906101000a900473ffffffffffffffffffffffffffffffffffffffff1681565b600080600084815260200190815260200160002060000160008373ffffffffffffffffffffffffffffffffffffffff1673ffffffffffffffffffffffffffffffffffffffff16815260200190815260200160002060009054906101000a900460ff16905092915050565b6000801b81565b6105a482610277565b6105b5816105b061062e565b610636565b6105bf83836107b3565b505050565b60007f01ffc9a7000000000000000000000000000000000000000000000000000000007bffffffffffffffffffffffffffffffffffffffffffffffffffffffff1916827bffffffffffffffffffffffffffffffffffffffffffffffffffffffff1916149050919050565b600033905090565b610640828261052a565b6106cf576106658173ffffffffffffffffffffffffffffffffffffffff166014610894565b6106738360001c6020610894565b604051602001610684929190610e69565b6040516020818303038152906040526040517f08c379a00000000000000000000000000000000000000000000000000000000081526004016106c69190610f38565b60405180910390fd5b5050565b6106dd828261052a565b6107af57600160008084815260200190815260200160002060000160008373ffffffffffffffffffffffffffffffffffffffff1673ffffffffffffffffffffffffffffffffffffffff16815260200190815260200160002060006101000a81548160ff02191690831515021790555061075461062e565b73ffffffffffffffffffffffffffffffffffffffff168173ffffffffffffffffffffffffffffffffffffffff16837f2f8788117e7eff1d82e926ec794901d17c78024a50270940304540a733656f0d60405160405180910390a45b5050565b6107bd828261052a565b1561089057600080600084815260200190815260200160002060000160008373ffffffffffffffffffffffffffffffffffffffff1673ffffffffffffffffffffffffffffffffffffffff16815260200190815260200160002060006101000a81548160ff02191690831515021790555061083561062e565b73ffffffffffffffffffffffffffffffffffffffff168173ffffffffffffffffffffffffffffffffffffffff16837ff6391f5c32d9c69d2a47ea670b442974b53935d1edc7fd64eb21e047a839171b60405160405180910390a45b5050565b6060600060028360026108a79190611017565b6108b19190610fc1565b67ffffffffffffffff8111156108f0577f4e487b7100000000000000000000000000000000000000000000000000000000600052604160045260246000fd5b6040519080825280601f01601f1916602001820160405280156109225781602001600182028036833780820191505090505b5090507f300000000000000000000000000000000000000000000000000000000000000081600081518110610980577f4e487b7100000000000000000000000000000000000000000000000000000000600052603260045260246000fd5b60200101907effffffffffffffffffffffffffffffffffffffffffffffffffffffffffffff1916908160001a9053507f780000000000000000000000000000000000000000000000000000000000000081600181518110610a0a577f4e487b7100000000000000000000000000000000000000000000000000000000600052603260045260246000fd5b60200101907effffffffffffffffffffffffffffffffffffffffffffffffffffffffffffff1916908160001a90535060006001846002610a4a9190611017565b610a549190610fc1565b90505b6001811115610b40577f3031323334353637383961626364656600000000000000000000000000000000600f861660108110610abc577f4e487b7100000000000000000000000000000000000000000000000000000000600052603260045260246000fd5b1a60f81b828281518110610af9577f4e487b7100000000000000000000000000000000000000000000000000000000600052603260045260246000fd5b60200101907effffffffffffffffffffffffffffffffffffffffffffffffffffffffffffff1916908160001a905350600485901c945080610b3990611146565b9050610a57565b5060008414610b84576040517f08c379a0000000000000000000000000000000000000000000000000000000008152600401610b7b90610f5a565b60405180910390fd5b8091505092915050565b600081359050610b9d8161127a565b92915050565b600081519050610bb281611291565b92915050565b600081359050610bc7816112a8565b92915050565b600081359050610bdc816112bf565b92915050565b600081359050610bf1816112d6565b92915050565b600081519050610c06816112d6565b92915050565b60008060408385031215610c1f57600080fd5b6000610c2d85828601610b8e565b9250506020610c3e85828601610be2565b9150509250929050565b600060208284031215610c5a57600080fd5b6000610c6884828501610ba3565b91505092915050565b600060208284031215610c8357600080fd5b6000610c9184828501610bb8565b91505092915050565b60008060408385031215610cad57600080fd5b6000610cbb85828601610bb8565b9250506020610ccc85828601610b8e565b9150509250929050565b600060208284031215610ce857600080fd5b6000610cf684828501610bcd565b91505092915050565b600060208284031215610d1157600080fd5b6000610d1f84828501610bf7565b91505092915050565b610d3181611071565b82525050565b610d4081611083565b82525050565b610d4f8161108f565b82525050565b610d5e816110ef565b82525050565b6000610d6f82610f9a565b610d798185610fa5565b9350610d89818560208601611113565b610d928161119f565b840191505092915050565b6000610da882610f9a565b610db28185610fb6565b9350610dc2818560208601611113565b80840191505092915050565b6000610ddb602083610fa5565b9150610de6826111b0565b602082019050919050565b6000610dfe601783610fb6565b9150610e09826111d9565b601782019050919050565b6000610e21601183610fb6565b9150610e2c82611202565b601182019050919050565b6000610e44602f83610fa5565b9150610e4f8261122b565b604082019050919050565b610e63816110e5565b82525050565b6000610e7482610df1565b9150610e808285610d9d565b9150610e8b82610e14565b9150610e978284610d9d565b91508190509392505050565b6000602082019050610eb86000830184610d28565b92915050565b6000604082019050610ed36000830185610d28565b610ee06020830184610e5a565b9392505050565b6000602082019050610efc6000830184610d37565b92915050565b6000602082019050610f176000830184610d46565b92915050565b6000602082019050610f326000830184610d55565b92915050565b60006020820190508181036000830152610f528184610d64565b905092915050565b60006020820190508181036000830152610f7381610dce565b9050919050565b60006020820190508181036000830152610f9381610e37565b9050919050565b600081519050919050565b600082825260208201905092915050565b600081905092915050565b6000610fcc826110e5565b9150610fd7836110e5565b9250827fffffffffffffffffffffffffffffffffffffffffffffffffffffffffffffffff0382111561100c5761100b611170565b5b828201905092915050565b6000611022826110e5565b915061102d836110e5565b9250817fffffffffffffffffffffffffffffffffffffffffffffffffffffffffffffffff048311821515161561106657611065611170565b5b828202905092915050565b600061107c826110c5565b9050919050565b60008115159050919050565b6000819050919050565b60007fffffffff0000000000000000000000000000000000000000000000000000000082169050919050565b600073ffffffffffffffffffffffffffffffffffffffff82169050919050565b6000819050919050565b60006110fa82611101565b9050919050565b600061110c826110c5565b9050919050565b60005b83811015611131578082015181840152602081019050611116565b83811115611140576000848401525b50505050565b6000611151826110e5565b9150600082141561116557611164611170565b5b600182039050919050565b7f4e487b7100000000000000000000000000000000000000000000000000000000600052601160045260246000fd5b6000601f19601f8301169050919050565b7f537472696e67733a20686578206c656e67746820696e73756666696369656e74600082015250565b7f416363657373436f6e74726f6c3a206163636f756e7420000000000000000000600082015250565b7f206973206d697373696e6720726f6c6520000000000000000000000000000000600082015250565b7f416363657373436f6e74726f6c3a2063616e206f6e6c792072656e6f756e636560008201527f20726f6c657320666f722073656c660000000000000000000000000000000000602082015250565b61128381611071565b811461128e57600080fd5b50565b61129a81611083565b81146112a557600080fd5b50565b6112b18161108f565b81146112bc57600080fd5b50565b6112c881611099565b81146112d357600080fd5b50565b6112df816110e5565b81146112ea57600080fd5b5056fea2646970667358221220cc2d7fa84ca329958b2ce8dd5fc72e8f6b98f86b39c4c5da4328759b8c4fcb2564736f6c63430008040033",
  "linkReferences": {},
  "deployedLinkReferences": {}
}